{
  "contractName": "DSStop",
  "abi": [
    {
      "anonymous": true,
      "inputs": [
        {
          "indexed": true,
          "internalType": "bytes4",
          "name": "sig",
          "type": "bytes4"
        },
        {
          "indexed": true,
          "internalType": "address",
          "name": "guy",
          "type": "address"
        },
        {
          "indexed": true,
          "internalType": "bytes32",
          "name": "foo",
          "type": "bytes32"
        },
        {
          "indexed": true,
          "internalType": "bytes32",
          "name": "bar",
          "type": "bytes32"
        },
        {
          "indexed": false,
          "internalType": "uint256",
          "name": "wad",
          "type": "uint256"
        },
        {
          "indexed": false,
          "internalType": "bytes",
          "name": "fax",
          "type": "bytes"
        }
      ],
      "name": "LogNote",
      "type": "event"
    },
    {
      "anonymous": false,
      "inputs": [
        {
          "indexed": true,
          "internalType": "address",
          "name": "authority",
          "type": "address"
        }
      ],
      "name": "LogSetAuthority",
      "type": "event"
    },
    {
      "anonymous": false,
      "inputs": [
        {
          "indexed": true,
          "internalType": "address",
          "name": "owner",
          "type": "address"
        }
      ],
      "name": "LogSetOwner",
      "type": "event"
    },
    {
      "constant": true,
      "inputs": [],
      "name": "authority",
      "outputs": [
        {
          "internalType": "contract DSAuthority",
          "name": "",
          "type": "address"
        }
      ],
      "payable": false,
      "stateMutability": "view",
      "type": "function"
    },
    {
      "constant": true,
      "inputs": [],
      "name": "owner",
      "outputs": [
        {
          "internalType": "address",
          "name": "",
          "type": "address"
        }
      ],
      "payable": false,
      "stateMutability": "view",
      "type": "function"
    },
    {
      "constant": false,
      "inputs": [
        {
          "internalType": "contract DSAuthority",
          "name": "authority_",
          "type": "address"
        }
      ],
      "name": "setAuthority",
      "outputs": [],
      "payable": false,
      "stateMutability": "nonpayable",
      "type": "function"
    },
    {
      "constant": false,
      "inputs": [
        {
          "internalType": "address",
          "name": "owner_",
          "type": "address"
        }
      ],
      "name": "setOwner",
      "outputs": [],
      "payable": false,
      "stateMutability": "nonpayable",
      "type": "function"
    },
    {
      "constant": true,
      "inputs": [],
      "name": "stopped",
      "outputs": [
        {
          "internalType": "bool",
          "name": "",
          "type": "bool"
        }
      ],
      "payable": false,
      "stateMutability": "view",
      "type": "function"
    },
    {
      "constant": false,
      "inputs": [],
      "name": "stop",
      "outputs": [],
      "payable": true,
      "stateMutability": "payable",
      "type": "function"
    },
    {
      "constant": false,
      "inputs": [],
      "name": "start",
      "outputs": [],
      "payable": true,
      "stateMutability": "payable",
      "type": "function"
    }
  ],
  "bytecode": "0x608060405233600160006101000a81548173ffffffffffffffffffffffffffffffffffffffff021916908373ffffffffffffffffffffffffffffffffffffffff1602179055503373ffffffffffffffffffffffffffffffffffffffff167fce241d7ca1f669fee44b6fc00b8eba2df3bb514eed0f6f668f8f89096e81ed9460405160405180910390a26108c7806100976000396000f3fe6080604052600436106100705760003560e01c80637a9e5e4b1161004e5780637a9e5e4b146100ff5780638da5cb5b14610150578063be9a6555146101a7578063bf7e214f146101b157610070565b806307da68f51461007557806313af40351461007f57806375f12b21146100d0575b600080fd5b61007d610208565b005b34801561008b57600080fd5b506100ce600480360360208110156100a257600080fd5b81019080803573ffffffffffffffffffffffffffffffffffffffff169060200190929190505050610312565b005b3480156100dc57600080fd5b506100e56103f2565b604051808215151515815260200191505060405180910390f35b34801561010b57600080fd5b5061014e6004803603602081101561012257600080fd5b81019080803573ffffffffffffffffffffffffffffffffffffffff169060200190929190505050610405565b005b34801561015c57600080fd5b506101656104e3565b604051808273ffffffffffffffffffffffffffffffffffffffff1673ffffffffffffffffffffffffffffffffffffffff16815260200191505060405180910390f35b6101af610509565b005b3480156101bd57600080fd5b506101c6610614565b604051808273ffffffffffffffffffffffffffffffffffffffff1673ffffffffffffffffffffffffffffffffffffffff16815260200191505060405180910390f35b610236336000357fffffffff0000000000000000000000000000000000000000000000000000000016610639565b61023f57600080fd5b6000806004359150602435905080823373ffffffffffffffffffffffffffffffffffffffff166000357fffffffff00000000000000000000000000000000000000000000000000000000167bffffffffffffffffffffffffffffffffffffffffffffffffffffffff19163460003660405180848152602001806020018281038252848482818152602001925080828437600081840152601f19601f82011690508083019250505094505050505060405180910390a460018060146101000a81548160ff0219169083151502179055505050565b610340336000357fffffffff0000000000000000000000000000000000000000000000000000000016610639565b61034957600080fd5b80600160006101000a81548173ffffffffffffffffffffffffffffffffffffffff021916908373ffffffffffffffffffffffffffffffffffffffff160217905550600160009054906101000a900473ffffffffffffffffffffffffffffffffffffffff1673ffffffffffffffffffffffffffffffffffffffff167fce241d7ca1f669fee44b6fc00b8eba2df3bb514eed0f6f668f8f89096e81ed9460405160405180910390a250565b600160149054906101000a900460ff1681565b610433336000357fffffffff0000000000000000000000000000000000000000000000000000000016610639565b61043c57600080fd5b806000806101000a81548173ffffffffffffffffffffffffffffffffffffffff021916908373ffffffffffffffffffffffffffffffffffffffff1602179055506000809054906101000a900473ffffffffffffffffffffffffffffffffffffffff1673ffffffffffffffffffffffffffffffffffffffff167f1abebea81bfa2637f28358c371278fb15ede7ea8dd28d2e03b112ff6d936ada460405160405180910390a250565b600160009054906101000a900473ffffffffffffffffffffffffffffffffffffffff1681565b610537336000357fffffffff0000000000000000000000000000000000000000000000000000000016610639565b61054057600080fd5b6000806004359150602435905080823373ffffffffffffffffffffffffffffffffffffffff166000357fffffffff00000000000000000000000000000000000000000000000000000000167bffffffffffffffffffffffffffffffffffffffffffffffffffffffff19163460003660405180848152602001806020018281038252848482818152602001925080828437600081840152601f19601f82011690508083019250505094505050505060405180910390a46000600160146101000a81548160ff0219169083151502179055505050565b6000809054906101000a900473ffffffffffffffffffffffffffffffffffffffff1681565b60003073ffffffffffffffffffffffffffffffffffffffff168373ffffffffffffffffffffffffffffffffffffffff161415610678576001905061088c565b600160009054906101000a900473ffffffffffffffffffffffffffffffffffffffff1673ffffffffffffffffffffffffffffffffffffffff168373ffffffffffffffffffffffffffffffffffffffff1614156106d7576001905061088c565b600073ffffffffffffffffffffffffffffffffffffffff166000809054906101000a900473ffffffffffffffffffffffffffffffffffffffff1673ffffffffffffffffffffffffffffffffffffffff161415610736576000905061088c565b6000809054906101000a900473ffffffffffffffffffffffffffffffffffffffff1673ffffffffffffffffffffffffffffffffffffffff1663b70096138430856040518463ffffffff1660e01b8152600401808473ffffffffffffffffffffffffffffffffffffffff1673ffffffffffffffffffffffffffffffffffffffff1681526020018373ffffffffffffffffffffffffffffffffffffffff1673ffffffffffffffffffffffffffffffffffffffff168152602001827bffffffffffffffffffffffffffffffffffffffffffffffffffffffff19167bffffffffffffffffffffffffffffffffffffffffffffffffffffffff19168152602001935050505060206040518083038186803b15801561084e57600080fd5b505afa158015610862573d6000803e3d6000fd5b505050506040513d602081101561087857600080fd5b810190808051906020019092919050505090505b9291505056fea265627a7a72315820c4ac96a3f40f81c37265a531545376bcdd77f17544c9136f6d1b7d2fe65e4a8664736f6c63430005110032",
  "source": "// SPDX-License-Identifier: MIT\r\npragma solidity ^0.5.16;\r\n\r\ncontract DSMath {\r\n    function add(uint x, uint y) internal pure returns (uint z) {\r\n        require((z = x + y) >= x, \"ds-math-add-overflow\");\r\n    }\r\n    function sub(uint x, uint y) internal pure returns (uint z) {\r\n        require((z = x - y) <= x, \"ds-math-sub-underflow\");\r\n    }\r\n    function mul(uint x, uint y) internal pure returns (uint z) {\r\n        require(y == 0 || (z = x * y) / y == x, \"ds-math-mul-overflow\");\r\n    }\r\n\r\n    function min(uint x, uint y) internal pure returns (uint z) {\r\n        return x <= y ? x : y;\r\n    }\r\n    function max(uint x, uint y) internal pure returns (uint z) {\r\n        return x >= y ? x : y;\r\n    }\r\n    function imin(int x, int y) internal pure returns (int z) {\r\n        return x <= y ? x : y;\r\n    }\r\n    function imax(int x, int y) internal pure returns (int z) {\r\n        return x >= y ? x : y;\r\n    }\r\n\r\n    uint constant WAD = 10 ** 18;\r\n    uint constant RAY = 10 ** 27;\r\n\r\n    function wmul(uint x, uint y) internal pure returns (uint z) {\r\n        z = add(mul(x, y), WAD / 2) / WAD;\r\n    }\r\n    function rmul(uint x, uint y) internal pure returns (uint z) {\r\n        z = add(mul(x, y), RAY / 2) / RAY;\r\n    }\r\n    function wdiv(uint x, uint y) internal pure returns (uint z) {\r\n        z = add(mul(x, WAD), y / 2) / y;\r\n    }\r\n    function rdiv(uint x, uint y) internal pure returns (uint z) {\r\n        z = add(mul(x, RAY), y / 2) / y;\r\n    }\r\n\r\n    // This famous algorithm is called \"exponentiation by squaring\"\r\n    // and calculates x^n with x as fixed-point and n as regular unsigned.\r\n    //\r\n    // It's O(log n), instead of O(n) for naive repeated multiplication.\r\n    //\r\n    // These facts are why it works:\r\n    //\r\n    //  If n is even, then x^n = (x^2)^(n/2).\r\n    //  If n is odd,  then x^n = x * x^(n-1),\r\n    //   and applying the equation for even x gives\r\n    //    x^n = x * (x^2)^((n-1) / 2).\r\n    //\r\n    //  Also, EVM division is flooring and\r\n    //    floor[(n-1) / 2] = floor[n / 2].\r\n    //\r\n    function rpow(uint x, uint n) internal pure returns (uint z) {\r\n        z = n % 2 != 0 ? x : RAY;\r\n\r\n        for (n /= 2; n != 0; n /= 2) {\r\n            x = rmul(x, x);\r\n\r\n            if (n % 2 != 0) {\r\n                z = rmul(z, x);\r\n            }\r\n        }\r\n    }\r\n}\r\n\r\ncontract ERC20Events {\r\n    event Approval(address indexed src, address indexed guy, uint wad);\r\n    event Transfer(address indexed src, address indexed dst, uint wad);\r\n}\r\n\r\ncontract ERC20 is ERC20Events \r\n{\r\n    function totalSupply() public view returns (uint);\r\n    function balanceOf(address guy) public view returns (uint);\r\n    function allowance(address src, address guy) public view returns (uint);\r\n\r\n    function approve(address guy, uint wad) public returns (bool);\r\n    function transfer(address dst, uint wad) public returns (bool);\r\n    function transferFrom(address src, address dst, uint wad) public returns (bool);\r\n}\r\n\r\ncontract DSTokenBase is ERC20, DSMath {\r\n    uint256                                            _supply;\r\n    mapping (address => uint256)                       _balances;\r\n    mapping (address => mapping (address => uint256))  _approvals;\r\n\r\n    constructor(uint supply) public{\r\n        _balances[msg.sender] = supply;\r\n        _supply = supply;\r\n    }\r\n\r\n    function totalSupply() public view returns (uint) {\r\n        return _supply;\r\n    }\r\n    function balanceOf(address src) public view returns (uint) {\r\n        return _balances[src];\r\n    }\r\n    function allowance(address src, address guy) public view returns (uint) {\r\n        return _approvals[src][guy];\r\n    }\r\n\r\n    function transfer(address dst, uint wad) public returns (bool) {\r\n        return transferFrom(msg.sender, dst, wad);\r\n    }\r\n\r\n    function transferFrom(address src, address dst, uint wad)\r\n    public \r\n    returns (bool)\r\n    {\r\n        if (src != msg.sender) {\r\n            require(_approvals[src][msg.sender] >= wad, \"ds-token-insufficient-approval\");\r\n            _approvals[src][msg.sender] = sub(_approvals[src][msg.sender], wad);\r\n        }\r\n\r\n        require(_balances[src] >= wad, \"ds-token-insufficient-balance\");\r\n        _balances[src] = sub(_balances[src], wad);\r\n        _balances[dst] = add(_balances[dst], wad);\r\n\r\n        emit Transfer(src, dst, wad);\r\n\r\n        return true;\r\n    }\r\n\r\n    function approve(address guy, uint wad) public returns (bool) {\r\n        _approvals[msg.sender][guy] = wad;\r\n\r\n        emit Approval(msg.sender, guy, wad);\r\n\r\n        return true;\r\n    }\r\n}\r\n\r\ncontract DSNote {\r\n    event LogNote(\r\n        bytes4   indexed  sig,\r\n        address  indexed  guy,\r\n        bytes32  indexed  foo,\r\n        bytes32  indexed  bar,\r\n        uint              wad,\r\n        bytes             fax\r\n    ) anonymous;\r\n\r\n    modifier note {\r\n        bytes32 foo;\r\n        bytes32 bar;\r\n\r\n        assembly {\r\n            foo := calldataload(4)\r\n            bar := calldataload(36)\r\n        }\r\n\r\n        emit LogNote(msg.sig, msg.sender, foo, bar, msg.value, msg.data);\r\n\r\n        _;\r\n    }\r\n}\r\n\r\ncontract DSAuthority {\r\n    function canCall(\r\n        address src, address dst, bytes4 sig\r\n    ) public view returns (bool);\r\n}\r\n\r\ncontract DSAuthEvents {\r\n    event LogSetAuthority (address indexed authority);\r\n    event LogSetOwner     (address indexed owner);\r\n}\r\n\r\ncontract DSAuth is DSAuthEvents {\r\n    DSAuthority  public  authority;\r\n    address      public  owner;\r\n\r\n    constructor() public {\r\n        owner = msg.sender;\r\n        emit LogSetOwner(msg.sender);\r\n    }\r\n\r\n    function setOwner(address owner_)\r\n    public\r\n    auth\r\n    {\r\n        owner = owner_;\r\n        emit LogSetOwner(owner);\r\n    }\r\n\r\n    function setAuthority(DSAuthority authority_)\r\n    public\r\n    auth\r\n    {\r\n        authority = authority_;\r\n        emit LogSetAuthority(address(authority));\r\n    }\r\n\r\n    modifier auth {\r\n        require(isAuthorized(msg.sender, msg.sig));\r\n        _;\r\n    }\r\n\r\n    function isAuthorized(address src, bytes4 sig) internal view returns (bool) {\r\n        if (src == address(this)) {\r\n            return true;\r\n        } else if (src == owner) {\r\n            return true;\r\n        } else if (authority == DSAuthority(0)) {\r\n            return false;\r\n        } else {\r\n            return authority.canCall(src, address(this), sig);\r\n        }\r\n    }\r\n}\r\n\r\ncontract DSStop is DSNote, DSAuth {\r\n\r\n    bool public stopped;\r\n\r\n    modifier stoppable {\r\n        require(!stopped);\r\n        _;\r\n    }\r\n    function stop() public payable auth note {\r\n        stopped = true;\r\n    }\r\n    function start() public payable auth note {\r\n        stopped = false;\r\n    }\r\n\r\n}\r\n\r\ncontract Bitspawn is DSTokenBase(0), DSStop {\r\n\r\n    mapping (address => mapping (address => bool)) _trusted;\r\n\r\n    uint256  public  decimals = 18;\r\n    bytes32  public  symbol = \"SP\";\r\n    bytes32  public  name = \"Bit Token\";\r\n\r\n    constructor() public {}\r\n\r\n    event Trust(address indexed src, address indexed guy, bool wat);\r\n    event Mint(address indexed guy, uint wad);\r\n    event Burn(address indexed guy, uint wad);\r\n\r\n    function setName(bytes32 name_) public auth {\r\n        name = name_;\r\n    }\r\n\r\n    function trusted(address src, address guy) public view returns (bool) {\r\n        return _trusted[src][guy];\r\n    }\r\n    function trust(address guy, bool wat) public stoppable {\r\n        _trusted[msg.sender][guy] = wat;\r\n        emit Trust(msg.sender, guy, wat);\r\n    }\r\n\r\n    function approve(address guy, uint wad) public stoppable returns (bool) {\r\n        return super.approve(guy, wad);\r\n    }\r\n    function transferFrom(address src, address dst, uint wad)\r\n    public \r\n    stoppable\r\n    returns (bool)\r\n    {\r\n        if (src != msg.sender && !_trusted[src][msg.sender]) {\r\n            _approvals[src][msg.sender] = sub(_approvals[src][msg.sender], wad);\r\n        }\r\n\r\n        _balances[src] = sub(_balances[src], wad);\r\n        _balances[dst] = add(_balances[dst], wad);\r\n\r\n        emit Transfer(src, dst, wad);\r\n        return true;\r\n    }\r\n\r\n    function push(address dst, uint wad) public { //给钱\r\n        transferFrom(msg.sender, dst, wad);\r\n    }\r\n    function pull(address src, uint wad) public {//拿钱\r\n        transferFrom(src, msg.sender, wad);\r\n    }\r\n    function move(address src, address dst, uint wad) public {//第三方移动\r\n        transferFrom(src, dst, wad);\r\n    }\r\n\r\n    function mint(uint wad) public {//生成货币\r\n        mint(msg.sender, wad);\r\n    }\r\n    function burn(uint wad) public {//销毁货币\r\n        burn(msg.sender, wad);\r\n    }\r\n    function mint(address guy, uint wad) public auth stoppable {\r\n        _balances[guy] = add(_balances[guy], wad);\r\n        _supply = add(_supply, wad);\r\n        emit Mint(guy, wad);\r\n        emit Transfer(address(0), guy, wad);\r\n    }\r\n    function burn(address guy, uint wad) public auth stoppable {\r\n        _balances[guy] = sub(_balances[guy], wad);\r\n        _supply = sub(_supply, wad);\r\n        emit Burn(guy, wad);\r\n        emit Transfer(guy, address(0), wad);\r\n    }\r\n}\r\n",
  "sourcePath": "D:/ETH Project/Erc20/contracts/erc20.sol",
  "compiler": {
    "name": "solc",
    "version": "0.5.17+commit.d19bba13.Emscripten.clang"
  },
  "schemaVersion": "3.4.1",
  "updatedAt": "2021-08-18T06:26:12.897Z",
  "devdoc": {
    "methods": {}
  },
  "userdoc": {
    "methods": {}
  }
}