{
  "contractName": "ErcTest",
  "abi": [
    {
      "inputs": [
        {
          "internalType": "address",
          "name": "tokenContractAddress",
          "type": "address"
        },
        {
          "internalType": "address",
          "name": "_owner",
          "type": "address"
        }
      ],
      "payable": false,
      "stateMutability": "nonpayable",
      "type": "constructor"
    },
    {
      "constant": true,
      "inputs": [],
      "name": "owner",
      "outputs": [
        {
          "internalType": "address",
          "name": "",
          "type": "address"
        }
      ],
      "payable": false,
      "stateMutability": "view",
      "type": "function"
    },
    {
      "constant": true,
      "inputs": [],
      "name": "tokenContract",
      "outputs": [
        {
          "internalType": "contract ERC20",
          "name": "",
          "type": "address"
        }
      ],
      "payable": false,
      "stateMutability": "view",
      "type": "function"
    },
    {
      "constant": false,
      "inputs": [
        {
          "internalType": "uint256",
          "name": "_value",
          "type": "uint256"
        }
      ],
      "name": "transferToShop",
      "outputs": [
        {
          "internalType": "bool",
          "name": "",
          "type": "bool"
        }
      ],
      "payable": false,
      "stateMutability": "nonpayable",
      "type": "function"
    },
    {
      "constant": false,
      "inputs": [
        {
          "internalType": "uint256",
          "name": "_value",
          "type": "uint256"
        }
      ],
      "name": "getMoneyFromShop",
      "outputs": [],
      "payable": false,
      "stateMutability": "nonpayable",
      "type": "function"
    },
    {
      "constant": false,
      "inputs": [
        {
          "internalType": "address",
          "name": "p1",
          "type": "address"
        },
        {
          "internalType": "address",
          "name": "p2",
          "type": "address"
        },
        {
          "internalType": "uint256",
          "name": "_value",
          "type": "uint256"
        }
      ],
      "name": "transferTo",
      "outputs": [
        {
          "internalType": "bool",
          "name": "",
          "type": "bool"
        }
      ],
      "payable": false,
      "stateMutability": "nonpayable",
      "type": "function"
    }
  ],
  "bytecode": "0x608060405234801561001057600080fd5b506040516106f23803806106f28339818101604052604081101561003357600080fd5b81019080805190602001909291908051906020019092919050505081600160006101000a81548173ffffffffffffffffffffffffffffffffffffffff021916908373ffffffffffffffffffffffffffffffffffffffff160217905550806000806101000a81548173ffffffffffffffffffffffffffffffffffffffff021916908373ffffffffffffffffffffffffffffffffffffffff1602179055505050610612806100e06000396000f3fe608060405234801561001057600080fd5b50600436106100575760003560e01c806318a31b011461005c5780632ee5aae6146100a257806355a373d6146100d05780638da5cb5b1461011a578063a5f2a15214610164575b600080fd5b6100886004803603602081101561007257600080fd5b81019080803590602001909291905050506101ea565b604051808215151515815260200191505060405180910390f35b6100ce600480360360208110156100b857600080fd5b810190808035906020019092919050505061032f565b005b6100d861046c565b604051808273ffffffffffffffffffffffffffffffffffffffff1673ffffffffffffffffffffffffffffffffffffffff16815260200191505060405180910390f35b610122610492565b604051808273ffffffffffffffffffffffffffffffffffffffff1673ffffffffffffffffffffffffffffffffffffffff16815260200191505060405180910390f35b6101d06004803603606081101561017a57600080fd5b81019080803573ffffffffffffffffffffffffffffffffffffffff169060200190929190803573ffffffffffffffffffffffffffffffffffffffff169060200190929190803590602001909291905050506104b7565b604051808215151515815260200191505060405180910390f35b6000600160009054906101000a900473ffffffffffffffffffffffffffffffffffffffff1673ffffffffffffffffffffffffffffffffffffffff166323b872dd336000809054906101000a900473ffffffffffffffffffffffffffffffffffffffff16856040518463ffffffff1660e01b8152600401808473ffffffffffffffffffffffffffffffffffffffff1673ffffffffffffffffffffffffffffffffffffffff1681526020018373ffffffffffffffffffffffffffffffffffffffff1673ffffffffffffffffffffffffffffffffffffffff1681526020018281526020019350505050602060405180830381600087803b1580156102ea57600080fd5b505af11580156102fe573d6000803e3d6000fd5b505050506040513d602081101561031457600080fd5b81019080805190602001909291905050505060019050919050565b600160009054906101000a900473ffffffffffffffffffffffffffffffffffffffff1673ffffffffffffffffffffffffffffffffffffffff166323b872dd6000809054906101000a900473ffffffffffffffffffffffffffffffffffffffff1633846040518463ffffffff1660e01b8152600401808473ffffffffffffffffffffffffffffffffffffffff1673ffffffffffffffffffffffffffffffffffffffff1681526020018373ffffffffffffffffffffffffffffffffffffffff1673ffffffffffffffffffffffffffffffffffffffff1681526020018281526020019350505050602060405180830381600087803b15801561042d57600080fd5b505af1158015610441573d6000803e3d6000fd5b505050506040513d602081101561045757600080fd5b81019080805190602001909291905050505050565b600160009054906101000a900473ffffffffffffffffffffffffffffffffffffffff1681565b6000809054906101000a900473ffffffffffffffffffffffffffffffffffffffff1681565b6000600160009054906101000a900473ffffffffffffffffffffffffffffffffffffffff1673ffffffffffffffffffffffffffffffffffffffff166323b872dd8585856040518463ffffffff1660e01b8152600401808473ffffffffffffffffffffffffffffffffffffffff1673ffffffffffffffffffffffffffffffffffffffff1681526020018373ffffffffffffffffffffffffffffffffffffffff1673ffffffffffffffffffffffffffffffffffffffff1681526020018281526020019350505050602060405180830381600087803b15801561059657600080fd5b505af11580156105aa573d6000803e3d6000fd5b505050506040513d60208110156105c057600080fd5b81019080805190602001909291905050505060019050939250505056fea265627a7a723158202e153cd6d954ab3f3208d1ca76759ee6953d96e5e11ff28159132a1df1b0f50a64736f6c63430005110032",
  "source": "pragma solidity >=0.5.8 < 0.6.0;\r\n\r\nimport \"./erc20.sol\";\r\n\r\ncontract ErcTest{\r\n\r\n    address public owner;\r\n    ERC20 public tokenContract;\r\n\r\n\r\n    constructor(\r\n        address tokenContractAddress,\r\n        address _owner\r\n    ) public{\r\n        tokenContract = ERC20(tokenContractAddress);\r\n        owner=_owner;\r\n    }\r\n\r\n     function transferToShop(uint256 _value)\r\n        public\r\n        returns (bool)\r\n    {\r\n        tokenContract.transferFrom(msg.sender, owner, _value);\r\n        return true;\r\n    }\r\n\r\n    /// @dev 收钱\r\n    function getMoneyFromShop(uint256 _value) public {\r\n        tokenContract.transferFrom(owner, msg.sender, _value);\r\n    }\r\n\r\n    /// @dev 玩家间交易\r\n    function transferTo(\r\n        address p1,\r\n        address p2,\r\n        uint256 _value\r\n    ) public returns (bool) {\r\n        tokenContract.transferFrom(p1, p2, _value);\r\n        return true;\r\n    }\r\n\r\n   \r\n}",
  "sourcePath": "D:\\ETH Project\\Erc20\\contracts\\ErcTest.sol",
  "compiler": {
    "name": "solc",
    "version": "0.5.17+commit.d19bba13.Emscripten.clang"
  },
  "schemaVersion": "3.4.1",
  "updatedAt": "2021-09-06T15:33:21.162Z",
  "devdoc": {
    "methods": {
      "getMoneyFromShop(uint256)": {
        "details": "收钱"
      },
      "transferTo(address,address,uint256)": {
        "details": "玩家间交易"
      }
    }
  },
  "userdoc": {
    "methods": {}
  }
}