{
  "contractName": "TournamentPool",
  "abi": [
    {
      "inputs": [
        {
          "internalType": "address",
          "name": "tokenContractAddress",
          "type": "address"
        },
        {
          "internalType": "uint256",
          "name": "_feeContractPercentage",
          "type": "uint256"
        },
        {
          "internalType": "uint256",
          "name": "_organizerPercentage",
          "type": "uint256"
        },
        {
          "internalType": "address",
          "name": "_owner",
          "type": "address"
        },
        {
          "internalType": "uint256",
          "name": "_minEntryFee",
          "type": "uint256"
        },
        {
          "internalType": "address[]",
          "name": "initialParticipants",
          "type": "address[]"
        }
      ],
      "payable": false,
      "stateMutability": "nonpayable",
      "type": "constructor"
    },
    {
      "anonymous": false,
      "inputs": [
        {
          "indexed": false,
          "internalType": "address",
          "name": "backer",
          "type": "address"
        },
        {
          "indexed": false,
          "internalType": "uint256",
          "name": "amount",
          "type": "uint256"
        }
      ],
      "name": "LogBacker",
      "type": "event"
    },
    {
      "anonymous": false,
      "inputs": [],
      "name": "LogCancel",
      "type": "event"
    },
    {
      "anonymous": false,
      "inputs": [],
      "name": "LogComplete",
      "type": "event"
    },
    {
      "anonymous": false,
      "inputs": [
        {
          "indexed": false,
          "internalType": "address",
          "name": "participant",
          "type": "address"
        },
        {
          "indexed": false,
          "internalType": "uint256",
          "name": "payout",
          "type": "uint256"
        }
      ],
      "name": "LogPayout",
      "type": "event"
    },
    {
      "anonymous": false,
      "inputs": [
        {
          "indexed": false,
          "internalType": "address",
          "name": "backer",
          "type": "address"
        },
        {
          "indexed": false,
          "internalType": "uint256",
          "name": "amount",
          "type": "uint256"
        }
      ],
      "name": "LogRefund",
      "type": "event"
    },
    {
      "anonymous": false,
      "inputs": [
        {
          "indexed": false,
          "internalType": "address",
          "name": "participant",
          "type": "address"
        }
      ],
      "name": "LogRegistration",
      "type": "event"
    },
    {
      "anonymous": false,
      "inputs": [
        {
          "indexed": false,
          "internalType": "address",
          "name": "participant",
          "type": "address"
        }
      ],
      "name": "LogUnregister",
      "type": "event"
    },
    {
      "constant": true,
      "inputs": [
        {
          "internalType": "address",
          "name": "",
          "type": "address"
        }
      ],
      "name": "backAmount",
      "outputs": [
        {
          "internalType": "uint256",
          "name": "",
          "type": "uint256"
        }
      ],
      "payable": false,
      "stateMutability": "view",
      "type": "function"
    },
    {
      "constant": true,
      "inputs": [],
      "name": "feeContractPercentage",
      "outputs": [
        {
          "internalType": "uint256",
          "name": "",
          "type": "uint256"
        }
      ],
      "payable": false,
      "stateMutability": "view",
      "type": "function"
    },
    {
      "constant": true,
      "inputs": [],
      "name": "isCompleted",
      "outputs": [
        {
          "internalType": "bool",
          "name": "",
          "type": "bool"
        }
      ],
      "payable": false,
      "stateMutability": "view",
      "type": "function"
    },
    {
      "constant": true,
      "inputs": [],
      "name": "minEntryFee",
      "outputs": [
        {
          "internalType": "uint256",
          "name": "",
          "type": "uint256"
        }
      ],
      "payable": false,
      "stateMutability": "view",
      "type": "function"
    },
    {
      "constant": true,
      "inputs": [],
      "name": "numPlayers",
      "outputs": [
        {
          "internalType": "uint256",
          "name": "",
          "type": "uint256"
        }
      ],
      "payable": false,
      "stateMutability": "view",
      "type": "function"
    },
    {
      "constant": true,
      "inputs": [],
      "name": "organizerPercentage",
      "outputs": [
        {
          "internalType": "uint256",
          "name": "",
          "type": "uint256"
        }
      ],
      "payable": false,
      "stateMutability": "view",
      "type": "function"
    },
    {
      "constant": true,
      "inputs": [],
      "name": "owner",
      "outputs": [
        {
          "internalType": "address",
          "name": "",
          "type": "address"
        }
      ],
      "payable": false,
      "stateMutability": "view",
      "type": "function"
    },
    {
      "constant": true,
      "inputs": [
        {
          "internalType": "address",
          "name": "",
          "type": "address"
        }
      ],
      "name": "participants",
      "outputs": [
        {
          "internalType": "bool",
          "name": "",
          "type": "bool"
        }
      ],
      "payable": false,
      "stateMutability": "view",
      "type": "function"
    },
    {
      "constant": true,
      "inputs": [
        {
          "internalType": "address",
          "name": "",
          "type": "address"
        }
      ],
      "name": "players",
      "outputs": [
        {
          "internalType": "bool",
          "name": "",
          "type": "bool"
        }
      ],
      "payable": false,
      "stateMutability": "view",
      "type": "function"
    },
    {
      "constant": true,
      "inputs": [],
      "name": "tokenContract",
      "outputs": [
        {
          "internalType": "contract ERC20",
          "name": "",
          "type": "address"
        }
      ],
      "payable": false,
      "stateMutability": "view",
      "type": "function"
    },
    {
      "constant": false,
      "inputs": [
        {
          "internalType": "uint256",
          "name": "amount",
          "type": "uint256"
        }
      ],
      "name": "register",
      "outputs": [],
      "payable": false,
      "stateMutability": "nonpayable",
      "type": "function"
    },
    {
      "constant": false,
      "inputs": [],
      "name": "unregister",
      "outputs": [],
      "payable": false,
      "stateMutability": "nonpayable",
      "type": "function"
    },
    {
      "constant": false,
      "inputs": [
        {
          "internalType": "uint256",
          "name": "amount",
          "type": "uint256"
        }
      ],
      "name": "fund",
      "outputs": [],
      "payable": false,
      "stateMutability": "nonpayable",
      "type": "function"
    },
    {
      "constant": false,
      "inputs": [
        {
          "internalType": "address payable[]",
          "name": "finalPlacements",
          "type": "address[]"
        },
        {
          "internalType": "uint256[]",
          "name": "prizeAllocationPerTenThousand",
          "type": "uint256[]"
        }
      ],
      "name": "completeTournament",
      "outputs": [],
      "payable": false,
      "stateMutability": "nonpayable",
      "type": "function"
    },
    {
      "constant": false,
      "inputs": [],
      "name": "cancelTournament",
      "outputs": [],
      "payable": false,
      "stateMutability": "nonpayable",
      "type": "function"
    }
  ],
  "bytecode": "0x60806040523480156200001157600080fd5b5060405162001ef238038062001ef2833981810160405260c08110156200003757600080fd5b810190808051906020019092919080519060200190929190805190602001909291908051906020019092919080519060200190929190805160405193929190846401000000008211156200008a57600080fd5b83820191506020820185811115620000a157600080fd5b8251866020820283011164010000000082111715620000bf57600080fd5b8083526020830192505050908051906020019060200280838360005b83811015620000f8578082015181840152602081019050620000db565b5050505090500160405250505085600560006101000a81548173ffffffffffffffffffffffffffffffffffffffff021916908373ffffffffffffffffffffffffffffffffffffffff1602179055508460038190555083600481905550826000806101000a81548173ffffffffffffffffffffffffffffffffffffffff021916908373ffffffffffffffffffffffffffffffffffffffff1602179055508160028190555060008090505b815181101562000247576000828281518110620001ba57fe5b60200260200101519050620001d5816200025460201b60201c565b7f4c2cd98156e6a27c8f70b5432e1dc7cee6bc43471c4bb8446cadbd44fbfbf2ba81604051808273ffffffffffffffffffffffffffffffffffffffff1673ffffffffffffffffffffffffffffffffffffffff16815260200191505060405180910390a1508080600101915050620001a1565b5050505050505062000368565b600760008273ffffffffffffffffffffffffffffffffffffffff1673ffffffffffffffffffffffffffffffffffffffff16815260200190815260200160002060009054906101000a900460ff1662000365576001600760008373ffffffffffffffffffffffffffffffffffffffff1673ffffffffffffffffffffffffffffffffffffffff16815260200190815260200160002060006101000a81548160ff02191690831515021790555060098190806001815401808255809150509060018203906000526020600020016000909192909190916101000a81548173ffffffffffffffffffffffffffffffffffffffff021916908373ffffffffffffffffffffffffffffffffffffffff160217905550505b50565b611b7a80620003786000396000f3fe608060405234801561001057600080fd5b50600436106100f55760003560e01c80638da5cb5b11610097578063e2eb41ff11610066578063e2eb41ff1461043e578063e79a198f1461049a578063f207564e146104a4578063fa391c64146104d2576100f5565b80638da5cb5b1461038a57806397b2f556146103d4578063997953c6146103f2578063ca1d209d14610410576100f5565b80635c05b26e116100d35780635c05b26e146101f8578063646156aa1461034457806376e5b8621461034e57806377b2eae01461036c576100f5565b806309e69ede146100fa5780631fd882d11461015657806355a373d6146101ae575b600080fd5b61013c6004803603602081101561011057600080fd5b81019080803573ffffffffffffffffffffffffffffffffffffffff1690602001909291905050506104f4565b604051808215151515815260200191505060405180910390f35b6101986004803603602081101561016c57600080fd5b81019080803573ffffffffffffffffffffffffffffffffffffffff169060200190929190505050610514565b6040518082815260200191505060405180910390f35b6101b661052c565b604051808273ffffffffffffffffffffffffffffffffffffffff1673ffffffffffffffffffffffffffffffffffffffff16815260200191505060405180910390f35b6103426004803603604081101561020e57600080fd5b810190808035906020019064010000000081111561022b57600080fd5b82018360208201111561023d57600080fd5b8035906020019184602083028401116401000000008311171561025f57600080fd5b919080806020026020016040519081016040528093929190818152602001838360200280828437600081840152601f19601f820116905080830192505050505050509192919290803590602001906401000000008111156102bf57600080fd5b8201836020820111156102d157600080fd5b803590602001918460208302840111640100000000831117156102f357600080fd5b919080806020026020016040519081016040528093929190818152602001838360200280828437600081840152601f19601f820116905080830192505050505050509192919290505050610552565b005b61034c610746565b005b610356610bd7565b6040518082815260200191505060405180910390f35b610374610bdd565b6040518082815260200191505060405180910390f35b610392610be3565b604051808273ffffffffffffffffffffffffffffffffffffffff1673ffffffffffffffffffffffffffffffffffffffff16815260200191505060405180910390f35b6103dc610c08565b6040518082815260200191505060405180910390f35b6103fa610c0e565b6040518082815260200191505060405180910390f35b61043c6004803603602081101561042657600080fd5b8101908080359060200190929190505050610c14565b005b6104806004803603602081101561045457600080fd5b81019080803573ffffffffffffffffffffffffffffffffffffffff169060200190929190505050610cad565b604051808215151515815260200191505060405180910390f35b6104a2610ccd565b005b6104d0600480360360208110156104ba57600080fd5b8101908080359060200190929190505050610f2e565b005b6104da611164565b604051808215151515815260200191505060405180910390f35b60076020528060005260406000206000915054906101000a900460ff1681565b60066020528060005260406000206000915090505481565b600560009054906101000a900473ffffffffffffffffffffffffffffffffffffffff1681565b6000809054906101000a900473ffffffffffffffffffffffffffffffffffffffff1673ffffffffffffffffffffffffffffffffffffffff163373ffffffffffffffffffffffffffffffffffffffff1614610614576040517f08c379a000000000000000000000000000000000000000000000000000000000815260040180806020018281038252601e8152602001807f6e6f7420746865206f776e6572206f66207468697320636f6e7472616374000081525060200191505060405180910390fd5b600560149054906101000a900460ff1615610697576040517f08c379a000000000000000000000000000000000000000000000000000000000815260040180806020018281038252601f8152602001807f746f75726e616d656e7420697320616c726561647920636f6d706c657465640081525060200191505060405180910390fd5b80518251146106f1576040517f08c379a0000000000000000000000000000000000000000000000000000000008152600401808060200182810382526039815260200180611aea6039913960400191505060405180910390fd5b6106fb8282611177565b6001600560146101000a81548160ff0219169083151502179055507fbbf93173200b07feb5b440c63ea96d13e6fe53f2550e2a359eeb993f1d9f523860405160405180910390a15050565b6000809054906101000a900473ffffffffffffffffffffffffffffffffffffffff1673ffffffffffffffffffffffffffffffffffffffff163373ffffffffffffffffffffffffffffffffffffffff1614610808576040517f08c379a000000000000000000000000000000000000000000000000000000000815260040180806020018281038252601e8152602001807f6e6f7420746865206f776e6572206f66207468697320636f6e7472616374000081525060200191505060405180910390fd5b600560149054906101000a900460ff161561088b576040517f08c379a000000000000000000000000000000000000000000000000000000000815260040180806020018281038252601f8152602001807f746f75726e616d656e7420697320616c726561647920636f6d706c657465640081525060200191505060405180910390fd5b60008090505b60098054905081101561097a576000600982815481106108ad57fe5b9060005260206000200160009054906101000a900473ffffffffffffffffffffffffffffffffffffffff1690506000600660008373ffffffffffffffffffffffffffffffffffffffff1673ffffffffffffffffffffffffffffffffffffffff16815260200190815260200160002054111561096c5761096b81600660008473ffffffffffffffffffffffffffffffffffffffff1673ffffffffffffffffffffffffffffffffffffffff16815260200190815260200160002054611594565b5b508080600101915050610891565b50600560009054906101000a900473ffffffffffffffffffffffffffffffffffffffff1673ffffffffffffffffffffffffffffffffffffffff166323b872dd306000809054906101000a900473ffffffffffffffffffffffffffffffffffffffff16600560009054906101000a900473ffffffffffffffffffffffffffffffffffffffff1673ffffffffffffffffffffffffffffffffffffffff166370a08231306040518263ffffffff1660e01b8152600401808273ffffffffffffffffffffffffffffffffffffffff1673ffffffffffffffffffffffffffffffffffffffff16815260200191505060206040518083038186803b158015610a7b57600080fd5b505afa158015610a8f573d6000803e3d6000fd5b505050506040513d6020811015610aa557600080fd5b81019080805190602001909291905050506040518463ffffffff1660e01b8152600401808473ffffffffffffffffffffffffffffffffffffffff1673ffffffffffffffffffffffffffffffffffffffff1681526020018373ffffffffffffffffffffffffffffffffffffffff1673ffffffffffffffffffffffffffffffffffffffff1681526020018281526020019350505050602060405180830381600087803b158015610b5257600080fd5b505af1158015610b66573d6000803e3d6000fd5b505050506040513d6020811015610b7c57600080fd5b8101908080519060200190929190505050506001600560146101000a81548160ff0219169083151502179055507f1086688fc15d38f80096d3c109f05d1b696290c27e5f6263e8e8d28a501a0c5d60405160405180910390a1565b60025481565b60045481565b6000809054906101000a900473ffffffffffffffffffffffffffffffffffffffff1681565b60015481565b60035481565b600560149054906101000a900460ff1615610c97576040517f08c379a000000000000000000000000000000000000000000000000000000000815260040180806020018281038252601f8152602001807f746f75726e616d656e7420697320616c726561647920636f6d706c657465640081525060200191505060405180910390fd5b610ca033611801565b610caa3382611914565b50565b60086020528060005260406000206000915054906101000a900460ff1681565b600560149054906101000a900460ff1615610d50576040517f08c379a000000000000000000000000000000000000000000000000000000000815260040180806020018281038252601f8152602001807f746f75726e616d656e7420697320616c726561647920636f6d706c657465640081525060200191505060405180910390fd5b6000339050600860008273ffffffffffffffffffffffffffffffffffffffff1673ffffffffffffffffffffffffffffffffffffffff16815260200190815260200160002060009054906101000a900460ff16610e14576040517f08c379a000000000000000000000000000000000000000000000000000000000815260040180806020018281038252601a8152602001807f7061727469636970616e74206e6f74207265676973746572656400000000000081525060200191505060405180910390fd5b610e5d81600660008473ffffffffffffffffffffffffffffffffffffffff1673ffffffffffffffffffffffffffffffffffffffff16815260200190815260200160002054611594565b6000600860008373ffffffffffffffffffffffffffffffffffffffff1673ffffffffffffffffffffffffffffffffffffffff16815260200190815260200160002060006101000a81548160ff021916908315150217905550600160008154809291906001900391905055507f11854d1b3c0aa24c7c879af700c0089a48a48e9280bac11f5370b90b7cca481c81604051808273ffffffffffffffffffffffffffffffffffffffff1673ffffffffffffffffffffffffffffffffffffffff16815260200191505060405180910390a150565b600560149054906101000a900460ff1615610fb1576040517f08c379a000000000000000000000000000000000000000000000000000000000815260040180806020018281038252601f8152602001807f746f75726e616d656e7420697320616c726561647920636f6d706c657465640081525060200191505060405180910390fd5b600254811015611029576040517f08c379a00000000000000000000000000000000000000000000000000000000081526004018080602001828103825260198152602001807f70617920746865206d696e696d756d20656e747279206665650000000000000081525060200191505060405180910390fd5b600033905061103781611801565b6110418183611914565b600860008273ffffffffffffffffffffffffffffffffffffffff1673ffffffffffffffffffffffffffffffffffffffff16815260200190815260200160002060009054906101000a900460ff166110fd576001600860008373ffffffffffffffffffffffffffffffffffffffff1673ffffffffffffffffffffffffffffffffffffffff16815260200190815260200160002060006101000a81548160ff0219169083151502179055506001600081548092919060010191905055505b7f4c2cd98156e6a27c8f70b5432e1dc7cee6bc43471c4bb8446cadbd44fbfbf2ba81604051808273ffffffffffffffffffffffffffffffffffffffff1673ffffffffffffffffffffffffffffffffffffffff16815260200191505060405180910390a15050565b600560149054906101000a900460ff1681565b6000600560009054906101000a900473ffffffffffffffffffffffffffffffffffffffff1673ffffffffffffffffffffffffffffffffffffffff166370a08231306040518263ffffffff1660e01b8152600401808273ffffffffffffffffffffffffffffffffffffffff1673ffffffffffffffffffffffffffffffffffffffff16815260200191505060206040518083038186803b15801561121857600080fd5b505afa15801561122c573d6000803e3d6000fd5b505050506040513d602081101561124257600080fd5b810190808051906020019092919050505090506000606460045483028161126557fe5b049050600560009054906101000a900473ffffffffffffffffffffffffffffffffffffffff1673ffffffffffffffffffffffffffffffffffffffff166323b872dd306000809054906101000a900473ffffffffffffffffffffffffffffffffffffffff16846040518463ffffffff1660e01b8152600401808473ffffffffffffffffffffffffffffffffffffffff1673ffffffffffffffffffffffffffffffffffffffff1681526020018373ffffffffffffffffffffffffffffffffffffffff1673ffffffffffffffffffffffffffffffffffffffff1681526020018281526020019350505050602060405180830381600087803b15801561136657600080fd5b505af115801561137a573d6000803e3d6000fd5b505050506040513d602081101561139057600080fd5b81019080805190602001909291905050505060008090505b845181101561158d5760008582815181106113bf57fe5b602002602001015190506000620f42408684815181106113db57fe5b602002602001015160035460045460640303870202816113f757fe5b049050600560009054906101000a900473ffffffffffffffffffffffffffffffffffffffff1673ffffffffffffffffffffffffffffffffffffffff166323b872dd3084846040518463ffffffff1660e01b8152600401808473ffffffffffffffffffffffffffffffffffffffff1673ffffffffffffffffffffffffffffffffffffffff1681526020018373ffffffffffffffffffffffffffffffffffffffff1673ffffffffffffffffffffffffffffffffffffffff1681526020018281526020019350505050602060405180830381600087803b1580156114d757600080fd5b505af11580156114eb573d6000803e3d6000fd5b505050506040513d602081101561150157600080fd5b8101908080519060200190929190505050507f7d6963073a93103d7a336ea21c7f029ad757c9ef4c0c6ad0ff86c689480e0ed88282604051808373ffffffffffffffffffffffffffffffffffffffff1673ffffffffffffffffffffffffffffffffffffffff1681526020018281526020019250505060405180910390a1505080806001019150506113a8565b5050505050565b80600660008473ffffffffffffffffffffffffffffffffffffffff1673ffffffffffffffffffffffffffffffffffffffff16815260200190815260200160002054101561162c576040517f08c379a0000000000000000000000000000000000000000000000000000000008152600401808060200182810382526023815260200180611b236023913960400191505060405180910390fd5b600560009054906101000a900473ffffffffffffffffffffffffffffffffffffffff1673ffffffffffffffffffffffffffffffffffffffff166323b872dd3084846040518463ffffffff1660e01b8152600401808473ffffffffffffffffffffffffffffffffffffffff1673ffffffffffffffffffffffffffffffffffffffff1681526020018373ffffffffffffffffffffffffffffffffffffffff1673ffffffffffffffffffffffffffffffffffffffff1681526020018281526020019350505050602060405180830381600087803b15801561170957600080fd5b505af115801561171d573d6000803e3d6000fd5b505050506040513d602081101561173357600080fd5b81019080805190602001909291905050505080600660008473ffffffffffffffffffffffffffffffffffffffff1673ffffffffffffffffffffffffffffffffffffffff168152602001908152602001600020600082825403925050819055507fb6c0eca8138e097d71e2dd31e19a1266487f0553f170b7260ffe68bcbe9ff8a78282604051808373ffffffffffffffffffffffffffffffffffffffff1673ffffffffffffffffffffffffffffffffffffffff1681526020018281526020019250505060405180910390a15050565b600760008273ffffffffffffffffffffffffffffffffffffffff1673ffffffffffffffffffffffffffffffffffffffff16815260200190815260200160002060009054906101000a900460ff16611911576001600760008373ffffffffffffffffffffffffffffffffffffffff1673ffffffffffffffffffffffffffffffffffffffff16815260200190815260200160002060006101000a81548160ff02191690831515021790555060098190806001815401808255809150509060018203906000526020600020016000909192909190916101000a81548173ffffffffffffffffffffffffffffffffffffffff021916908373ffffffffffffffffffffffffffffffffffffffff160217905550505b50565b80600660008473ffffffffffffffffffffffffffffffffffffffff1673ffffffffffffffffffffffffffffffffffffffff16815260200190815260200160002060008282540192505081905550600560009054906101000a900473ffffffffffffffffffffffffffffffffffffffff1673ffffffffffffffffffffffffffffffffffffffff166323b872dd8330846040518463ffffffff1660e01b8152600401808473ffffffffffffffffffffffffffffffffffffffff1673ffffffffffffffffffffffffffffffffffffffff1681526020018373ffffffffffffffffffffffffffffffffffffffff1673ffffffffffffffffffffffffffffffffffffffff1681526020018281526020019350505050602060405180830381600087803b158015611a3e57600080fd5b505af1158015611a52573d6000803e3d6000fd5b505050506040513d6020811015611a6857600080fd5b8101908080519060200190929190505050507fda1f9d13deae0af1312bfbdc9f9b3ce4690b9abb55e276994ab00a5d79b189898282604051808373ffffffffffffffffffffffffffffffffffffffff1673ffffffffffffffffffffffffffffffffffffffff1681526020018281526020019250505060405180910390a1505056fe6c656e677468206f662066696e616c506c6163656d656e7420616e64207072697a65416c6c6f636174696f6e20646f206e6f74206d617463686261636b656420616d6f756e74206e6f7420656e6f75676820666f7220726566756e64a265627a7a7231582099932df5e62e6b9f4c599a0c8c14f98c7c806f5841b752f92b73afd9b3c2bc7f64736f6c63430005110032",
  "source": "pragma solidity >=0.5.8 < 0.6.0;\r\n\r\nimport \"./erc20.sol\";\r\n\r\ncontract TournamentPool {\r\n    address public owner;\r\n    uint public numPlayers;\r\n    uint public minEntryFee;\r\n    uint public feeContractPercentage;\r\n    uint public organizerPercentage;\r\n    ERC20 public tokenContract;\r\n\r\n    bool public isCompleted;\r\n\r\n    // participants in the torunament, include both backers and players\r\n    mapping(address => uint) public backAmount;\r\n    mapping(address => bool) public participants;\r\n    mapping(address => bool) public players;\r\n    address[] userIndex;\r\n\r\n    constructor(\r\n        address tokenContractAddress, // The SPWN token contract    erc20\r\n        //address feeContractAddress,\r\n        uint _feeContractPercentage, // out of 100\r\n        uint _organizerPercentage, // out of 100\r\n        address _owner,\r\n        uint _minEntryFee,\r\n        address[] memory initialParticipants\r\n    ) public {\r\n        tokenContract = ERC20(tokenContractAddress);\r\n\r\n        feeContractPercentage = _feeContractPercentage;\r\n        organizerPercentage = _organizerPercentage;\r\n        owner = _owner;\r\n        minEntryFee = _minEntryFee;\r\n\r\n        // Register the initial participants\r\n        for (uint i = 0; i < initialParticipants.length; i++) {\r\n            address p = initialParticipants[i];\r\n            addParticipant(p);\r\n            emit LogRegistration(p);\r\n        }\r\n    }\r\n\r\n    event LogRegistration(address participant);\r\n    event LogUnregister(address participant);\r\n    event LogPayout(address participant, uint payout);\r\n    event LogBacker(address backer, uint amount);\r\n    event LogRefund(address backer, uint amount);\r\n    event LogComplete();\r\n    event LogCancel();\r\n\r\n    modifier onlyOwner() {\r\n        require(msg.sender == owner, \"not the owner of this contract\");\r\n        _;\r\n    }\r\n\r\n    function addParticipant(address p) internal {\r\n        if (!participants[p]) {\r\n            participants[p] = true;\r\n            userIndex.push(p);\r\n        }\r\n    }\r\n\r\n    function setBacker(address backer, uint amount) internal {\r\n        backAmount[backer] += amount;\r\n        tokenContract.transferFrom(backer, address(this), amount);\r\n        emit LogBacker(backer, amount);\r\n    }\r\n\r\n    function refundBacker(address backer, uint amount) internal {\r\n        require(backAmount[backer] >= amount, \"backed amount not enough for refund\");\r\n        tokenContract.transferFrom(address(this), backer, amount);\r\n        backAmount[backer] -= amount;\r\n        emit LogRefund(backer, amount);\r\n    }\r\n\r\n    // Register as a player. Needs the minimum entry fee\r\n    function register(uint amount) public {\r\n        require(!isCompleted, \"tournament is already completed\");\r\n        require(amount >= minEntryFee, \"pay the minimum entry fee\");\r\n        address p = msg.sender;\r\n        addParticipant(p);\r\n        setBacker(p, amount);\r\n        if (!players[p]){\r\n            players[p] = true;\r\n            numPlayers++;\r\n        }\r\n        emit LogRegistration(p);\r\n    }\r\n\r\n    // Unregister a player. Refunds all funding\r\n    function unregister() public {\r\n        require(!isCompleted, \"tournament is already completed\");\r\n        address p = msg.sender;\r\n        require(players[p], \"participant not registered\");\r\n        refundBacker(p, backAmount[p]);\r\n        players[p] = false;\r\n        numPlayers--;\r\n        emit LogUnregister(p);\r\n    }\r\n\r\n    // Contribute some money to the prize pool\r\n    function fund(uint amount) public {\r\n        require(!isCompleted, \"tournament is already completed\");\r\n        addParticipant(msg.sender);\r\n        setBacker(msg.sender, amount);\r\n    }\r\n\r\n    // Pay the prize money to each participant\r\n    function payParticipants(address payable[] memory finalPlacements, uint256[] memory prizeAllocationPerTenThousand) internal {\r\n        uint totalBalance = tokenContract.balanceOf(address(this));\r\n        uint organizerPayout = totalBalance * organizerPercentage /100;\r\n        tokenContract.transferFrom(address(this), owner, organizerPayout);\r\n        for (uint i = 0; i < finalPlacements.length; i++) {\r\n            address payable p = finalPlacements[i];\r\n            uint payout = totalBalance * (100-organizerPercentage-feeContractPercentage) * prizeAllocationPerTenThousand[i] /1000000;\r\n            tokenContract.transferFrom(address(this), p, payout);\r\n            emit LogPayout(p, payout);\r\n        }\r\n    }\r\n\r\n    function completeTournament(address payable[] memory finalPlacements, uint256[] memory prizeAllocationPerTenThousand) public onlyOwner {\r\n        require(!isCompleted, \"tournament is already completed\");\r\n        require(finalPlacements.length == prizeAllocationPerTenThousand.length, \"length of finalPlacement and prizeAllocation do not match\");\r\n        payParticipants(finalPlacements, prizeAllocationPerTenThousand);\r\n       // tokenContract.transferFrom(address(this), address(feeContract), tokenContract.balanceOf(address(this)));\r\n        isCompleted = true;\r\n        emit LogComplete();\r\n    }\r\n\r\n    function cancelTournament() public onlyOwner {\r\n        require(!isCompleted, \"tournament is already completed\");\r\n        for (uint i = 0; i < userIndex.length; i++) {\r\n            address p = userIndex[i];\r\n            if (backAmount[p] > 0) {\r\n                refundBacker(p, backAmount[p]);\r\n            }\r\n        }\r\n        tokenContract.transferFrom(address(this), owner, tokenContract.balanceOf(address(this)));\r\n        isCompleted = true;\r\n        emit LogCancel();\r\n    }\r\n}",
  "sourcePath": "D:/ETH Project/Erc20/contracts/TournamentPool.sol",
  "compiler": {
    "name": "solc",
    "version": "0.5.17+commit.d19bba13.Emscripten.clang"
  },
  "schemaVersion": "3.4.1",
  "updatedAt": "2021-09-04T02:17:26.004Z",
  "devdoc": {
    "methods": {}
  },
  "userdoc": {
    "methods": {}
  }
}